{
  "address": "0x81597Bf09F10E81128b40612BF598B9C518293d0",
  "abi": [
    {
      "inputs": [
        {
          "internalType": "contract IServiceStorageManager",
          "name": "serviceManager_",
          "type": "address"
        },
        {
          "internalType": "address",
          "name": "channel",
          "type": "address"
        },
        {
          "internalType": "address",
          "name": "owner_",
          "type": "address"
        }
      ],
      "stateMutability": "nonpayable",
      "type": "constructor"
    },
    {
      "anonymous": false,
      "inputs": [
        {
          "indexed": true,
          "internalType": "bytes2",
          "name": "gId",
          "type": "bytes2"
        },
        {
          "indexed": true,
          "internalType": "bytes2",
          "name": "serviceId",
          "type": "bytes2"
        },
        {
          "indexed": true,
          "internalType": "bytes28",
          "name": "uuid",
          "type": "bytes28"
        },
        {
          "indexed": false,
          "internalType": "uint256",
          "name": "amount",
          "type": "uint256"
        },
        {
          "indexed": false,
          "internalType": "uint256",
          "name": "expiration",
          "type": "uint256"
        }
      ],
      "name": "MintStorage",
      "type": "event"
    },
    {
      "anonymous": false,
      "inputs": [
        {
          "indexed": true,
          "internalType": "address",
          "name": "previousOwner",
          "type": "address"
        },
        {
          "indexed": true,
          "internalType": "address",
          "name": "newOwner",
          "type": "address"
        }
      ],
      "name": "OwnershipTransferred",
      "type": "event"
    },
    {
      "anonymous": false,
      "inputs": [
        {
          "indexed": true,
          "internalType": "address",
          "name": "childChannel",
          "type": "address"
        }
      ],
      "name": "SetChildChannel",
      "type": "event"
    },
    {
      "inputs": [],
      "name": "channel",
      "outputs": [
        {
          "internalType": "address",
          "name": "",
          "type": "address"
        }
      ],
      "stateMutability": "view",
      "type": "function"
    },
    {
      "inputs": [],
      "name": "gId",
      "outputs": [
        {
          "internalType": "bytes2",
          "name": "",
          "type": "bytes2"
        }
      ],
      "stateMutability": "pure",
      "type": "function"
    },
    {
      "inputs": [
        {
          "internalType": "bytes2",
          "name": "gId_",
          "type": "bytes2"
        },
        {
          "internalType": "bytes2",
          "name": "serviceId_",
          "type": "bytes2"
        },
        {
          "internalType": "bytes28",
          "name": "uuid",
          "type": "bytes28"
        },
        {
          "internalType": "uint256",
          "name": "amount",
          "type": "uint256"
        },
        {
          "internalType": "uint256",
          "name": "expiration_",
          "type": "uint256"
        }
      ],
      "name": "mintStorage",
      "outputs": [],
      "stateMutability": "nonpayable",
      "type": "function"
    },
    {
      "inputs": [],
      "name": "owner",
      "outputs": [
        {
          "internalType": "address",
          "name": "",
          "type": "address"
        }
      ],
      "stateMutability": "view",
      "type": "function"
    },
    {
      "inputs": [],
      "name": "renounceOwnership",
      "outputs": [],
      "stateMutability": "nonpayable",
      "type": "function"
    },
    {
      "inputs": [],
      "name": "serviceId",
      "outputs": [
        {
          "internalType": "bytes2",
          "name": "",
          "type": "bytes2"
        }
      ],
      "stateMutability": "pure",
      "type": "function"
    },
    {
      "inputs": [],
      "name": "serviceManager",
      "outputs": [
        {
          "internalType": "contract IServiceStorageManager",
          "name": "",
          "type": "address"
        }
      ],
      "stateMutability": "view",
      "type": "function"
    },
    {
      "inputs": [
        {
          "internalType": "address",
          "name": "_channel",
          "type": "address"
        }
      ],
      "name": "transferChildChannel",
      "outputs": [],
      "stateMutability": "nonpayable",
      "type": "function"
    },
    {
      "inputs": [
        {
          "internalType": "address",
          "name": "newOwner",
          "type": "address"
        }
      ],
      "name": "transferOwnership",
      "outputs": [],
      "stateMutability": "nonpayable",
      "type": "function"
    }
  ],
  "transactionHash": "0xd6afcc087bc1e5d714ac4fc71ec21b7d6a2de07d132eb7f1b283e99acc40e90d",
  "args": [
    "0x5584E0b8BEA22952cb97Db7663A71d87a8280fbD",
    "0x71b7644A10d4c487DE4487f9B885C64b9dE3FE40",
    "0xF1658C608708172655A8e70a1624c29F956Ee63D"
  ],
  "bytecode": "0x608060405234801561001057600080fd5b5060405161093338038061093383398101604081905261002f91610191565b8161004061003b6100b4565b6100b8565b600180546001600160a01b0319166001600160a01b0383169081179091556040517fe54b19c181b769fe92eecce1051e5d0dde17a8b319992db9dbf3d6aab0fa247690600090a250600280546001600160a01b0319166001600160a01b0385161790556100ac81610108565b50505061026d565b3390565b600080546001600160a01b038381166001600160a01b0319831681178455604051919092169283917f8be0079c531659141344cd1fd0a4f28419497f9722a3daafe3b4186f6b6457e09190a35050565b6101106100b4565b6001600160a01b0316610121610182565b6001600160a01b0316146101505760405162461bcd60e51b815260040161014790610223565b60405180910390fd5b6001600160a01b0381166101765760405162461bcd60e51b8152600401610147906101dd565b61017f816100b8565b50565b6000546001600160a01b031690565b6000806000606084860312156101a5578283fd5b83516101b081610258565b60208501519093506101c181610258565b60408501519092506101d281610258565b809150509250925092565b60208082526026908201527f4f776e61626c653a206e6577206f776e657220697320746865207a65726f206160408201526564647265737360d01b606082015260800190565b6020808252818101527f4f776e61626c653a2063616c6c6572206973206e6f7420746865206f776e6572604082015260600190565b6001600160a01b038116811461017f57600080fd5b6106b78061027c6000396000f3fe608060405234801561001057600080fd5b50600436106100935760003560e01c80638da5cb5b116100665780638da5cb5b146100db57806399695f6b146100e3578063a2a19e45146100f6578063da20ec6a146100f6578063f2fde38b1461010b57610093565b80633998fdd3146100985780634aefc15b146100b6578063715018a6146100cb5780637bbdb96e146100d3575b600080fd5b6100a061011e565b6040516100ad91906104cf565b60405180910390f35b6100c96100c4366004610442565b61012d565b005b6100c9610197565b6100a06101e2565b6100a06101f1565b6100c96100f1366004610470565b610200565b6100fe610358565b6040516100ad91906104e3565b6100c9610119366004610442565b610360565b6002546001600160a01b031681565b6101356103d1565b6001600160a01b03166101466101f1565b6001600160a01b0316146101755760405162461bcd60e51b815260040161016c906105fc565b60405180910390fd5b600180546001600160a01b0319166001600160a01b0392909216919091179055565b61019f6103d1565b6001600160a01b03166101b06101f1565b6001600160a01b0316146101d65760405162461bcd60e51b815260040161016c906105fc565b6101e060006103d5565b565b6001546001600160a01b031681565b6000546001600160a01b031690565b6001546001600160a01b0316331461022a5760405162461bcd60e51b815260040161016c906105ae565b610232610358565b6001600160f01b031986811691161461025d5760405162461bcd60e51b815260040161016c90610577565b610265610358565b6001600160f01b03198581169116146102905760405162461bcd60e51b815260040161016c90610631565b60025460405163f71c70f560e01b81526001600160a01b039091169063f71c70f5906102c890889088908890889088906004016104f8565b600060405180830381600087803b1580156102e257600080fd5b505af11580156102f6573d6000803e3d6000fd5b505050508263ffffffff1916846001600160f01b031916866001600160f01b0319167f1392a689e8cb504bcb77770ed697622fd8bdaaeef152442aa07de84bf233d3338585604051610349929190610673565b60405180910390a45050505050565b600160f01b90565b6103686103d1565b6001600160a01b03166103796101f1565b6001600160a01b03161461039f5760405162461bcd60e51b815260040161016c906105fc565b6001600160a01b0381166103c55760405162461bcd60e51b815260040161016c90610531565b6103ce816103d5565b50565b3390565b600080546001600160a01b038381166001600160a01b0319831681178455604051919092169283917f8be0079c531659141344cd1fd0a4f28419497f9722a3daafe3b4186f6b6457e09190a35050565b80356001600160f01b03198116811461043d57600080fd5b919050565b600060208284031215610453578081fd5b81356001600160a01b0381168114610469578182fd5b9392505050565b600080600080600060a08688031215610487578081fd5b61049086610425565b945061049e60208701610425565b9350604086013563ffffffff19811681146104b7578182fd5b94979396509394606081013594506080013592915050565b6001600160a01b0391909116815260200190565b6001600160f01b031991909116815260200190565b6001600160f01b0319958616815293909416602084015263ffffffff199190911660408301526060820152608081019190915260a00190565b60208082526026908201527f4f776e61626c653a206e6577206f776e657220697320746865207a65726f206160408201526564647265737360d01b606082015260800190565b6020808252601c908201527f486f7374696e674d616e616765723a20496e76616c6964206769642e00000000604082015260600190565b6020808252602e908201527f4368616e6e656c577261707065723a2043616e2062652063616c6c656420627960408201526d1031b430b73732b61037b7363c9760911b606082015260800190565b6020808252818101527f4f776e61626c653a2063616c6c6572206973206e6f7420746865206f776e6572604082015260600190565b60208082526022908201527f486f7374696e674d616e616765723a20496e76616c6964207365727669636549604082015261321760f11b606082015260800190565b91825260208201526040019056fea26469706673582212201ce7c52c0d53382c14a45fc8c9bed7d4c67e2a46680d567a2f5bed4e2fda4b2864736f6c63430008000033"
}