{
  "address": "0x5584E0b8BEA22952cb97Db7663A71d87a8280fbD",
  "abi": [
    {
      "inputs": [
        {
          "internalType": "address",
          "name": "owner",
          "type": "address"
        }
      ],
      "stateMutability": "nonpayable",
      "type": "constructor"
    },
    {
      "anonymous": false,
      "inputs": [
        {
          "indexed": true,
          "internalType": "address",
          "name": "manager",
          "type": "address"
        }
      ],
      "name": "AddManager",
      "type": "event"
    },
    {
      "anonymous": false,
      "inputs": [
        {
          "indexed": true,
          "internalType": "bytes32",
          "name": "to",
          "type": "bytes32"
        },
        {
          "indexed": false,
          "internalType": "uint256",
          "name": "total",
          "type": "uint256"
        },
        {
          "indexed": false,
          "internalType": "uint256",
          "name": "cost",
          "type": "uint256"
        },
        {
          "indexed": false,
          "internalType": "uint256",
          "name": "expiration",
          "type": "uint256"
        }
      ],
      "name": "FreeBalance",
      "type": "event"
    },
    {
      "anonymous": false,
      "inputs": [
        {
          "indexed": true,
          "internalType": "bytes32",
          "name": "to",
          "type": "bytes32"
        },
        {
          "indexed": false,
          "internalType": "string",
          "name": "cid",
          "type": "string"
        },
        {
          "indexed": false,
          "internalType": "uint256",
          "name": "size",
          "type": "uint256"
        },
        {
          "indexed": false,
          "internalType": "uint256",
          "name": "expiration",
          "type": "uint256"
        }
      ],
      "name": "Insert",
      "type": "event"
    },
    {
      "anonymous": false,
      "inputs": [
        {
          "indexed": true,
          "internalType": "address",
          "name": "previousOwner",
          "type": "address"
        },
        {
          "indexed": true,
          "internalType": "address",
          "name": "newOwner",
          "type": "address"
        }
      ],
      "name": "OwnershipTransferred",
      "type": "event"
    },
    {
      "anonymous": false,
      "inputs": [
        {
          "indexed": true,
          "internalType": "bytes32",
          "name": "to",
          "type": "bytes32"
        },
        {
          "indexed": false,
          "internalType": "string",
          "name": "cid",
          "type": "string"
        },
        {
          "indexed": false,
          "internalType": "uint256",
          "name": "size",
          "type": "uint256"
        },
        {
          "indexed": false,
          "internalType": "uint256",
          "name": "expiration",
          "type": "uint256"
        }
      ],
      "name": "Remove",
      "type": "event"
    },
    {
      "anonymous": false,
      "inputs": [
        {
          "indexed": true,
          "internalType": "address",
          "name": "manager",
          "type": "address"
        }
      ],
      "name": "RemoveManager",
      "type": "event"
    },
    {
      "anonymous": false,
      "inputs": [
        {
          "indexed": true,
          "internalType": "bytes32",
          "name": "to",
          "type": "bytes32"
        },
        {
          "indexed": false,
          "internalType": "uint256",
          "name": "amount",
          "type": "uint256"
        },
        {
          "indexed": false,
          "internalType": "uint256",
          "name": "expiration",
          "type": "uint256"
        }
      ],
      "name": "SyncStorage",
      "type": "event"
    },
    {
      "anonymous": false,
      "inputs": [
        {
          "indexed": true,
          "internalType": "bytes32",
          "name": "to",
          "type": "bytes32"
        },
        {
          "indexed": false,
          "internalType": "string",
          "name": "cid",
          "type": "string"
        },
        {
          "indexed": false,
          "internalType": "uint256",
          "name": "originalSize",
          "type": "uint256"
        },
        {
          "indexed": false,
          "internalType": "uint256",
          "name": "size",
          "type": "uint256"
        },
        {
          "indexed": false,
          "internalType": "uint256",
          "name": "expiration",
          "type": "uint256"
        }
      ],
      "name": "Update",
      "type": "event"
    },
    {
      "inputs": [
        {
          "internalType": "bytes32",
          "name": "to",
          "type": "bytes32"
        }
      ],
      "name": "accountExists",
      "outputs": [
        {
          "internalType": "bool",
          "name": "",
          "type": "bool"
        }
      ],
      "stateMutability": "view",
      "type": "function"
    },
    {
      "inputs": [
        {
          "internalType": "address",
          "name": "manager",
          "type": "address"
        }
      ],
      "name": "addManager",
      "outputs": [],
      "stateMutability": "nonpayable",
      "type": "function"
    },
    {
      "inputs": [
        {
          "internalType": "bytes32",
          "name": "",
          "type": "bytes32"
        }
      ],
      "name": "balances",
      "outputs": [
        {
          "internalType": "bytes32",
          "name": "to",
          "type": "bytes32"
        },
        {
          "internalType": "uint256",
          "name": "total",
          "type": "uint256"
        },
        {
          "internalType": "uint256",
          "name": "cost",
          "type": "uint256"
        },
        {
          "internalType": "uint256",
          "name": "expiration",
          "type": "uint256"
        }
      ],
      "stateMutability": "view",
      "type": "function"
    },
    {
      "inputs": [
        {
          "internalType": "bytes32",
          "name": "to",
          "type": "bytes32"
        },
        {
          "internalType": "string",
          "name": "cid",
          "type": "string"
        }
      ],
      "name": "cidExists",
      "outputs": [
        {
          "internalType": "bool",
          "name": "",
          "type": "bool"
        }
      ],
      "stateMutability": "view",
      "type": "function"
    },
    {
      "inputs": [
        {
          "internalType": "bytes32",
          "name": "to",
          "type": "bytes32"
        },
        {
          "internalType": "string",
          "name": "cid",
          "type": "string"
        }
      ],
      "name": "cidSize",
      "outputs": [
        {
          "internalType": "uint256",
          "name": "",
          "type": "uint256"
        }
      ],
      "stateMutability": "view",
      "type": "function"
    },
    {
      "inputs": [
        {
          "internalType": "bytes32",
          "name": "",
          "type": "bytes32"
        },
        {
          "internalType": "string",
          "name": "",
          "type": "string"
        }
      ],
      "name": "cids",
      "outputs": [
        {
          "internalType": "uint256",
          "name": "",
          "type": "uint256"
        }
      ],
      "stateMutability": "view",
      "type": "function"
    },
    {
      "inputs": [
        {
          "internalType": "bytes32",
          "name": "to",
          "type": "bytes32"
        }
      ],
      "name": "cost",
      "outputs": [
        {
          "internalType": "uint256",
          "name": "",
          "type": "uint256"
        }
      ],
      "stateMutability": "view",
      "type": "function"
    },
    {
      "inputs": [
        {
          "internalType": "bytes32",
          "name": "to",
          "type": "bytes32"
        }
      ],
      "name": "expiration",
      "outputs": [
        {
          "internalType": "uint256",
          "name": "",
          "type": "uint256"
        }
      ],
      "stateMutability": "view",
      "type": "function"
    },
    {
      "inputs": [
        {
          "internalType": "bytes32",
          "name": "to",
          "type": "bytes32"
        },
        {
          "internalType": "uint256",
          "name": "total",
          "type": "uint256"
        },
        {
          "internalType": "uint256",
          "name": "cost",
          "type": "uint256"
        },
        {
          "internalType": "uint256",
          "name": "expiration",
          "type": "uint256"
        }
      ],
      "name": "freeBalance",
      "outputs": [],
      "stateMutability": "nonpayable",
      "type": "function"
    },
    {
      "inputs": [
        {
          "internalType": "bytes2",
          "name": "gId",
          "type": "bytes2"
        },
        {
          "internalType": "bytes2",
          "name": "serviceId",
          "type": "bytes2"
        },
        {
          "internalType": "bytes28",
          "name": "uuid",
          "type": "bytes28"
        }
      ],
      "name": "guid",
      "outputs": [
        {
          "internalType": "bytes32",
          "name": "",
          "type": "bytes32"
        }
      ],
      "stateMutability": "pure",
      "type": "function"
    },
    {
      "inputs": [
        {
          "internalType": "bytes32",
          "name": "to",
          "type": "bytes32"
        },
        {
          "internalType": "string",
          "name": "cid",
          "type": "string"
        },
        {
          "internalType": "uint256",
          "name": "size",
          "type": "uint256"
        }
      ],
      "name": "insert",
      "outputs": [],
      "stateMutability": "nonpayable",
      "type": "function"
    },
    {
      "inputs": [
        {
          "internalType": "bytes32",
          "name": "to",
          "type": "bytes32"
        },
        {
          "internalType": "string[]",
          "name": "toCIDs",
          "type": "string[]"
        },
        {
          "internalType": "uint256[]",
          "name": "toSizes",
          "type": "uint256[]"
        }
      ],
      "name": "insertAll",
      "outputs": [],
      "stateMutability": "nonpayable",
      "type": "function"
    },
    {
      "inputs": [
        {
          "internalType": "bytes32",
          "name": "to",
          "type": "bytes32"
        }
      ],
      "name": "isExpired",
      "outputs": [
        {
          "internalType": "bool",
          "name": "",
          "type": "bool"
        }
      ],
      "stateMutability": "view",
      "type": "function"
    },
    {
      "inputs": [
        {
          "internalType": "address",
          "name": "",
          "type": "address"
        }
      ],
      "name": "isManagers",
      "outputs": [
        {
          "internalType": "bool",
          "name": "",
          "type": "bool"
        }
      ],
      "stateMutability": "view",
      "type": "function"
    },
    {
      "inputs": [
        {
          "internalType": "bytes32",
          "name": "to",
          "type": "bytes32"
        }
      ],
      "name": "left",
      "outputs": [
        {
          "internalType": "uint256",
          "name": "",
          "type": "uint256"
        }
      ],
      "stateMutability": "view",
      "type": "function"
    },
    {
      "inputs": [],
      "name": "owner",
      "outputs": [
        {
          "internalType": "address",
          "name": "",
          "type": "address"
        }
      ],
      "stateMutability": "view",
      "type": "function"
    },
    {
      "inputs": [
        {
          "internalType": "address",
          "name": "permitter",
          "type": "address"
        },
        {
          "internalType": "bool",
          "name": "isPermit",
          "type": "bool"
        }
      ],
      "name": "permit",
      "outputs": [],
      "stateMutability": "nonpayable",
      "type": "function"
    },
    {
      "inputs": [
        {
          "internalType": "address",
          "name": "",
          "type": "address"
        }
      ],
      "name": "permits",
      "outputs": [
        {
          "internalType": "bool",
          "name": "",
          "type": "bool"
        }
      ],
      "stateMutability": "view",
      "type": "function"
    },
    {
      "inputs": [
        {
          "internalType": "bytes32",
          "name": "to",
          "type": "bytes32"
        },
        {
          "internalType": "string",
          "name": "cid",
          "type": "string"
        }
      ],
      "name": "remove",
      "outputs": [],
      "stateMutability": "nonpayable",
      "type": "function"
    },
    {
      "inputs": [
        {
          "internalType": "bytes32",
          "name": "to",
          "type": "bytes32"
        },
        {
          "internalType": "string[]",
          "name": "toCIDs",
          "type": "string[]"
        }
      ],
      "name": "removeAll",
      "outputs": [],
      "stateMutability": "nonpayable",
      "type": "function"
    },
    {
      "inputs": [
        {
          "internalType": "address",
          "name": "manager",
          "type": "address"
        }
      ],
      "name": "removeManager",
      "outputs": [],
      "stateMutability": "nonpayable",
      "type": "function"
    },
    {
      "inputs": [],
      "name": "renounceOwnership",
      "outputs": [],
      "stateMutability": "nonpayable",
      "type": "function"
    },
    {
      "inputs": [
        {
          "internalType": "bytes2",
          "name": "gId",
          "type": "bytes2"
        },
        {
          "internalType": "bytes2",
          "name": "serviceId",
          "type": "bytes2"
        },
        {
          "internalType": "bytes28",
          "name": "uuid",
          "type": "bytes28"
        },
        {
          "internalType": "uint256",
          "name": "amount",
          "type": "uint256"
        },
        {
          "internalType": "uint256",
          "name": "expiration_",
          "type": "uint256"
        }
      ],
      "name": "syncStorage",
      "outputs": [],
      "stateMutability": "nonpayable",
      "type": "function"
    },
    {
      "inputs": [
        {
          "internalType": "bytes32",
          "name": "to",
          "type": "bytes32"
        }
      ],
      "name": "total",
      "outputs": [
        {
          "internalType": "uint256",
          "name": "",
          "type": "uint256"
        }
      ],
      "stateMutability": "view",
      "type": "function"
    },
    {
      "inputs": [
        {
          "internalType": "address",
          "name": "newOwner",
          "type": "address"
        }
      ],
      "name": "transferOwnership",
      "outputs": [],
      "stateMutability": "nonpayable",
      "type": "function"
    },
    {
      "inputs": [
        {
          "internalType": "bytes32",
          "name": "to",
          "type": "bytes32"
        },
        {
          "internalType": "string",
          "name": "cid",
          "type": "string"
        },
        {
          "internalType": "uint256",
          "name": "size",
          "type": "uint256"
        }
      ],
      "name": "update",
      "outputs": [],
      "stateMutability": "nonpayable",
      "type": "function"
    },
    {
      "inputs": [
        {
          "internalType": "bytes32",
          "name": "to",
          "type": "bytes32"
        },
        {
          "internalType": "string[]",
          "name": "toCIDs",
          "type": "string[]"
        },
        {
          "internalType": "uint256[]",
          "name": "toSizes",
          "type": "uint256[]"
        }
      ],
      "name": "updateAll",
      "outputs": [],
      "stateMutability": "nonpayable",
      "type": "function"
    }
  ],
  "transactionHash": "0x36a5c52d1dfe7f8e6829025ec357cdfb8a0552f3eef3915d9a37f05c1cd86bf4",
  "args": [
    "0xF1658C608708172655A8e70a1624c29F956Ee63D"
  ],
  "bytecode": "0x60806040523480156200001157600080fd5b5060405162001c9338038062001c93833981016040819052620000349162000143565b62000048620000426200005a565b6200005e565b6200005381620000ae565b50620001ee565b3390565b600080546001600160a01b038381166001600160a01b0319831681178455604051919092169283917f8be0079c531659141344cd1fd0a4f28419497f9722a3daafe3b4186f6b6457e09190a35050565b620000b86200005a565b6001600160a01b0316620000cb62000134565b6001600160a01b031614620000fd5760405162461bcd60e51b8152600401620000f490620001b9565b60405180910390fd5b6001600160a01b038116620001265760405162461bcd60e51b8152600401620000f49062000173565b62000131816200005e565b50565b6000546001600160a01b031690565b60006020828403121562000155578081fd5b81516001600160a01b03811681146200016c578182fd5b9392505050565b60208082526026908201527f4f776e61626c653a206e6577206f776e657220697320746865207a65726f206160408201526564647265737360d01b606082015260800190565b6020808252818101527f4f776e61626c653a2063616c6c6572206973206e6f7420746865206f776e6572604082015260600190565b611a9580620001fe6000396000f3fe608060405234801561001057600080fd5b50600436106101a85760003560e01c80638da5cb5b116100f9578063c279bff411610097578063f186c67f11610071578063f186c67f1461038e578063f2fde38b146103a1578063f71c70f5146103b4578063fba56f52146103c7576101a8565b8063c279bff414610355578063d9c48bfe14610368578063db1701251461037b576101a8565b8063ac18de43116100d3578063ac18de4314610309578063b348e7e41461031c578063b8962d1a1461032f578063bed1706514610342576101a8565b80638da5cb5b146102ce5780639884c67e146102e3578063a0561651146102f6576101a8565b806356406fa5116101665780636db2feb2116101405780636db2feb21461027d578063715018a6146102905780637fc45a23146102985780638909aa3f146102ab576101a8565b806356406fa51461024457806361b8b653146102575780636413c35e1461026a576101a8565b80628009a3146101ad5780632d06177a146101d65780632fbde054146101eb5780633764bc20146101fe5780633b816bec1461021e5780634777d83014610231575b600080fd5b6101c06101bb366004611257565b6103da565b6040516101cd9190611575565b60405180910390f35b6101e96101e4366004611257565b6103ef565b005b6101e96101f93660046114e8565b6104bc565b61021161020c36600461145f565b61059c565b6040516101cd9190611580565b6101c061022c366004611341565b6105ca565b6101c061023f36600461145f565b6105e4565b610211610252366004611341565b610619565b61021161026536600461145f565b61062e565b6101c0610278366004611257565b610661565b6101c061028b366004611341565b610676565b6101e9610689565b6101e96102a6366004611359565b6106d4565b6102be6102b9366004611341565b610757565b6040516101cd9493929190611589565b6102d6610780565b6040516101cd9190611561565b6101e96102f136600461139e565b61078f565b610211610304366004611341565b61085c565b6101e9610317366004611257565b610872565b61021161032a366004611341565b610932565b6101e961033d36600461149a565b610955565b6101e961035036600461149a565b610b2c565b6102116103633660046112ab565b610c82565b6101e961037636600461139e565b610cc9565b6101e961038936600461145f565b610d90565b6101e961039c366004611271565b610e7c565b6101e96103af366004611257565b610ee6565b6101e96103c23660046112ed565b610f57565b6102116103d5366004611341565b611048565b60016020526000908152604090205460ff1681565b6103f761105d565b6001600160a01b0316610408610780565b6001600160a01b0316146104375760405162461bcd60e51b815260040161042e906117b2565b60405180910390fd5b6001600160a01b03811660009081526003602052604090205460ff16156104705760405162461bcd60e51b815260040161042e9061181e565b6001600160a01b038116600081815260036020526040808220805460ff19166001179055517f3630096a7f9a158ab9fae41e86bfe31fd2202585a26a9668242672566dae028d9190a250565b3360009081526003602052604090205460ff166104eb5760405162461bcd60e51b815260040161042e9061188c565b6104f484610676565b6105105760405162461bcd60e51b815260040161042e906116f2565b6040805160808101825285815260208082018681528284018681526060840186815260008a815260029485905286902094518555915160018501555191830191909155516003909101555184907f64b56f6a3be6473ae845eab304754b491e80c6db10cd0ae11047dfa97188bba29061058e90869086908690611959565b60405180910390a250505050565b6004602090815260009283526040909220815180830184018051928152908401929093019190912091525481565b60008181526002602052604090206003015415155b919050565b6000828152600460205260408082209051610600908490611545565b9081526040519081900360200190205415159392505050565b60009081526002602052604090206003015490565b600082815260046020526040808220905161064a908490611545565b908152602001604051809103902054905092915050565b60036020526000908152604090205460ff1681565b600061068182610619565b421192915050565b61069161105d565b6001600160a01b03166106a2610780565b6001600160a01b0316146106c85760405162461bcd60e51b815260040161042e906117b2565b6106d26000611061565b565b3360009081526003602052604090205460ff166107035760405162461bcd60e51b815260040161042e9061188c565b60005b8151811015610752576107408383838151811061073357634e487b7160e01b600052603260045260246000fd5b6020026020010151610d90565b8061074a81611a18565b915050610706565b505050565b600260208190526000918252604090912080546001820154928201546003909201549092919084565b6000546001600160a01b031690565b3360009081526003602052604090205460ff166107be5760405162461bcd60e51b815260040161042e9061188c565b80518251146107df5760405162461bcd60e51b815260040161042e906118d0565b60005b8251811015610856576108448484838151811061080f57634e487b7160e01b600052603260045260246000fd5b602002602001015184848151811061083757634e487b7160e01b600052603260045260246000fd5b6020026020010151610955565b8061084e81611a18565b9150506107e2565b50505050565b6000908152600260208190526040909120015490565b61087a61105d565b6001600160a01b031661088b610780565b6001600160a01b0316146108b15760405162461bcd60e51b815260040161042e906117b2565b6001600160a01b03811660009081526003602052604090205460ff166108e95760405162461bcd60e51b815260040161042e9061188c565b6001600160a01b038116600081815260036020526040808220805460ff19169055517f1e25ed4cabec84d314dc176241019653f237da01f2bdd3a10cb0f38b33da67639190a250565b600061094f6109408361085c565b61094984611048565b906110b1565b92915050565b80600081116109765760405162461bcd60e51b815260040161042e90611735565b3360009081526003602052604090205460ff166109a55760405162461bcd60e51b815260040161042e9061188c565b60006109b085610619565b90504281116109d15760405162461bcd60e51b815260040161042e906115f8565b6109db85856105e4565b6109f75760405162461bcd60e51b815260040161042e90611855565b6000610a03868661062e565b905083811415610a255760405162461bcd60e51b815260040161042e90611675565b838111600081610a3e57610a3986846110b1565b610a48565b610a4883876110b1565b905081610a7757610a5888610932565b811115610a775760405162461bcd60e51b815260040161042e9061176c565b600082610a9657610a9182610a8b8b61085c565b906110c4565b610aa3565b610aa3826109498b61085c565b9050610aaf89826110d0565b86600460008b815260200190815260200160002089604051610ad19190611545565b908152602001604051809103902081905550887f4e8c398fffc35ab09a3bab851a124c701fff6dad4ec832faa328ae8241447f2a89868a89604051610b1994939291906115c9565b60405180910390a2505050505050505050565b8060008111610b4d5760405162461bcd60e51b815260040161042e90611735565b3360009081526003602052604090205460ff16610b7c5760405162461bcd60e51b815260040161042e9061188c565b81610b8685610932565b1015610ba45760405162461bcd60e51b815260040161042e906116ac565b6000610baf85610619565b9050428111610bd05760405162461bcd60e51b815260040161042e906115f8565b610bda85856105e4565b15610bf75760405162461bcd60e51b815260040161042e906117e7565b826004600087815260200190815260200160002085604051610c199190611545565b90815260405190819003602001902055610c3f85610c3a85610a8b8361085c565b6110d0565b847f1eef0dd7f2c4402e15a215aee878082b5f3fb360f96db64dc84a8b6e0838e6f9858584604051610c73939291906115a4565b60405180910390a25050505050565b600080610c99816001600160f01b031987166110c4565b9050610cb08161ffff60e01b601087901c166110c4565b9050610cc081602085901c6110c4565b95945050505050565b3360009081526003602052604090205460ff16610cf85760405162461bcd60e51b815260040161042e9061188c565b8051825114610d195760405162461bcd60e51b815260040161042e906118d0565b60005b825181101561085657610d7e84848381518110610d4957634e487b7160e01b600052603260045260246000fd5b6020026020010151848481518110610d7157634e487b7160e01b600052603260045260246000fd5b6020026020010151610b2c565b80610d8881611a18565b915050610d1c565b3360009081526003602052604090205460ff16610dbf5760405162461bcd60e51b815260040161042e9061188c565b610dc982826105e4565b610de55760405162461bcd60e51b815260040161042e90611855565b6000610df1838361062e565b9050610e0483610c3a836109498761085c565b600083815260046020526040908190209051610e21908490611545565b908152602001604051809103902060009055827f2b06eae6476b6a2c53b5254dc1db4744d635a4f5159fde22df798484de0072258383610e6087610619565b604051610e6f939291906115a4565b60405180910390a2505050565b610e8461105d565b6001600160a01b0316610e95610780565b6001600160a01b031614610ebb5760405162461bcd60e51b815260040161042e906117b2565b6001600160a01b03919091166000908152600160205260409020805460ff1916911515919091179055565b610eee61105d565b6001600160a01b0316610eff610780565b6001600160a01b031614610f255760405162461bcd60e51b815260040161042e906117b2565b6001600160a01b038116610f4b5760405162461bcd60e51b815260040161042e9061162f565b610f5481611061565b50565b3360009081526001602052604090205460ff16610f865760405162461bcd60e51b815260040161042e90611907565b6000610f93868686610c82565b9050610f9e816105ca565b15610fbc57610fad81836110f9565b610fb7818461111d565b611006565b604080516080810182528281526020808201868152600083850181815260608501888152878352600294859052959091209351845590516001840155519082015590516003909101555b807f43364063f20c00e6a0c96dd124126c89d6d72c3bef344b70bbe24306bd141624848460405161103892919061194b565b60405180910390a2505050505050565b60009081526002602052604090206001015490565b3390565b600080546001600160a01b038381166001600160a01b0319831681178455604051919092169283917f8be0079c531659141344cd1fd0a4f28419497f9722a3daafe3b4186f6b6457e09190a35050565b60006110bd82846119d5565b9392505050565b60006110bd82846119bd565b806110da8361085c565b146110f5576000828152600260208190526040909120018190555b5050565b8061110383610619565b146110f55760009182526002602052604090912060030155565b8061112783611048565b146110f55760009182526002602052604090912060010155565b80356001600160a01b03811681146105df57600080fd5b600082601f830112611168578081fd5b8135602061117d61117883611999565b61196f565b82815281810190858301855b858110156111b2576111a0898684358b01016111ec565b84529284019290840190600101611189565b5090979650505050505050565b80356001600160f01b0319811681146105df57600080fd5b803563ffffffff19811681146105df57600080fd5b600082601f8301126111fc578081fd5b813567ffffffffffffffff81111561121657611216611a49565b611229601f8201601f191660200161196f565b81815284602083860101111561123d578283fd5b816020850160208301379081016020019190915292915050565b600060208284031215611268578081fd5b6110bd82611141565b60008060408385031215611283578081fd5b61128c83611141565b9150602083013580151581146112a0578182fd5b809150509250929050565b6000806000606084860312156112bf578081fd5b6112c8846111bf565b92506112d6602085016111bf565b91506112e4604085016111d7565b90509250925092565b600080600080600060a08688031215611304578081fd5b61130d866111bf565b945061131b602087016111bf565b9350611329604087016111d7565b94979396509394606081013594506080013592915050565b600060208284031215611352578081fd5b5035919050565b6000806040838503121561136b578182fd5b82359150602083013567ffffffffffffffff811115611388578182fd5b61139485828601611158565b9150509250929050565b6000806000606084860312156113b2578283fd5b8335925060208085013567ffffffffffffffff808211156113d1578485fd5b6113dd88838901611158565b945060408701359150808211156113f2578384fd5b508501601f81018713611403578283fd5b803561141161117882611999565b81815283810190838501858402850186018b101561142d578687fd5b8694505b8385101561144f578035835260019490940193918501918501611431565b5080955050505050509250925092565b60008060408385031215611471578182fd5b82359150602083013567ffffffffffffffff81111561148e578182fd5b611394858286016111ec565b6000806000606084860312156114ae578283fd5b83359250602084013567ffffffffffffffff8111156114cb578283fd5b6114d7868287016111ec565b925050604084013590509250925092565b600080600080608085870312156114fd578182fd5b5050823594602084013594506040840135936060013592509050565b600081518084526115318160208601602086016119ec565b601f01601f19169290920160200192915050565b600082516115578184602087016119ec565b9190910192915050565b6001600160a01b0391909116815260200190565b901515815260200190565b90815260200190565b93845260208401929092526040830152606082015260800190565b6000606082526115b76060830186611519565b60208301949094525060400152919050565b6000608082526115dc6080830187611519565b6020830195909552506040810192909252606090910152919050565b6020808252601c908201527f50696e4d616e616765723a206163636f756e7420657870697265642e00000000604082015260600190565b60208082526026908201527f4f776e61626c653a206e6577206f776e657220697320746865207a65726f206160408201526564647265737360d01b606082015260800190565b6020808252601b908201527f50696e4d616e616765723a20657175616c206369642073697a652e0000000000604082015260600190565b60208082526026908201527f50696e4d616e616765723a204e6f7420656e6f7567682073746f72616765207460408201526537903834b71760d11b606082015260800190565b60208082526023908201527f50696e4d616e616765723a206163636f756e74206973206e6f7420657870697260408201526232b21760e91b606082015260800190565b6020808252601d908201527f50696e4d616e616765723a20696e76616c6964206369642073697a652e000000604082015260600190565b60208082526026908201527f50696e4d616e616765723a206e6f7420656e6f7567682073746f72616765207460408201526537903834b71760d11b606082015260800190565b6020808252818101527f4f776e61626c653a2063616c6c6572206973206e6f7420746865206f776e6572604082015260600190565b60208082526017908201527f50696e4d616e616765723a20636964206578697374732e000000000000000000604082015260600190565b6020808252601f908201527f536572766963654d616e616765723a206d616e61676572206578697374732e00604082015260600190565b6020808252601c908201527f50696e4d616e616765723a20636964206e6f6e6578697374656e742e00000000604082015260600190565b60208082526024908201527f536572766963654d616e616765723a206e6f6e6578697374656e74206d616e6160408201526333b2b91760e11b606082015260800190565b6020808252601f908201527f50696e4d616e616765723a20496e76616c696420706172616d65746572732e00604082015260600190565b60208082526024908201527f5065726d697461626c653a2063616c6c6572206973206e6f74207065726d69746040820152633a32b21760e11b606082015260800190565b918252602082015260400190565b9283526020830191909152604082015260600190565b60405181810167ffffffffffffffff8111828210171561199157611991611a49565b604052919050565b600067ffffffffffffffff8211156119b3576119b3611a49565b5060209081020190565b600082198211156119d0576119d0611a33565b500190565b6000828210156119e7576119e7611a33565b500390565b60005b83811015611a075781810151838201526020016119ef565b838111156108565750506000910152565b6000600019821415611a2c57611a2c611a33565b5060010190565b634e487b7160e01b600052601160045260246000fd5b634e487b7160e01b600052604160045260246000fdfea264697066735822122019ef4ef65f30ec645d41c849a587560ac651e1f51d2b8436940a9a6fd3486d0364736f6c63430008000033"
}