{
  "address": "0x604f9f1D1B0BeB91B56DC98909212c421a3ADD85",
  "abi": [
    {
      "inputs": [
        {
          "internalType": "address",
          "name": "_child",
          "type": "address"
        },
        {
          "internalType": "address",
          "name": "_master",
          "type": "address"
        }
      ],
      "stateMutability": "nonpayable",
      "type": "constructor"
    },
    {
      "anonymous": false,
      "inputs": [
        {
          "indexed": true,
          "internalType": "uint256",
          "name": "stateId",
          "type": "uint256"
        },
        {
          "indexed": true,
          "internalType": "address",
          "name": "sender",
          "type": "address"
        },
        {
          "indexed": false,
          "internalType": "bytes",
          "name": "message",
          "type": "bytes"
        },
        {
          "indexed": false,
          "internalType": "string",
          "name": "error",
          "type": "string"
        }
      ],
      "name": "MessageReceived",
      "type": "event"
    },
    {
      "anonymous": false,
      "inputs": [
        {
          "indexed": false,
          "internalType": "bytes",
          "name": "message",
          "type": "bytes"
        }
      ],
      "name": "MessageSent",
      "type": "event"
    },
    {
      "anonymous": false,
      "inputs": [
        {
          "indexed": true,
          "internalType": "address",
          "name": "previousOwner",
          "type": "address"
        },
        {
          "indexed": true,
          "internalType": "address",
          "name": "newOwner",
          "type": "address"
        }
      ],
      "name": "OwnershipTransferred",
      "type": "event"
    },
    {
      "anonymous": false,
      "inputs": [
        {
          "indexed": false,
          "internalType": "address",
          "name": "channel",
          "type": "address"
        },
        {
          "indexed": false,
          "internalType": "address",
          "name": "receiver",
          "type": "address"
        }
      ],
      "name": "SetRootChannel",
      "type": "event"
    },
    {
      "inputs": [
        {
          "internalType": "address",
          "name": "",
          "type": "address"
        }
      ],
      "name": "channelReceivers",
      "outputs": [
        {
          "internalType": "address",
          "name": "",
          "type": "address"
        }
      ],
      "stateMutability": "view",
      "type": "function"
    },
    {
      "inputs": [],
      "name": "child",
      "outputs": [
        {
          "internalType": "address",
          "name": "",
          "type": "address"
        }
      ],
      "stateMutability": "view",
      "type": "function"
    },
    {
      "inputs": [],
      "name": "owner",
      "outputs": [
        {
          "internalType": "address",
          "name": "",
          "type": "address"
        }
      ],
      "stateMutability": "view",
      "type": "function"
    },
    {
      "inputs": [
        {
          "internalType": "uint256",
          "name": "stateId",
          "type": "uint256"
        },
        {
          "internalType": "address",
          "name": "rootMessageSender",
          "type": "address"
        },
        {
          "internalType": "bytes",
          "name": "data",
          "type": "bytes"
        }
      ],
      "name": "processMessageFromRoot",
      "outputs": [],
      "stateMutability": "nonpayable",
      "type": "function"
    },
    {
      "inputs": [],
      "name": "renounceOwnership",
      "outputs": [],
      "stateMutability": "nonpayable",
      "type": "function"
    },
    {
      "inputs": [
        {
          "internalType": "bytes",
          "name": "message",
          "type": "bytes"
        }
      ],
      "name": "sendMessageToRoot",
      "outputs": [],
      "stateMutability": "nonpayable",
      "type": "function"
    },
    {
      "inputs": [
        {
          "internalType": "address",
          "name": "_rootChannel",
          "type": "address"
        },
        {
          "internalType": "address",
          "name": "receiver",
          "type": "address"
        }
      ],
      "name": "setRootChannel",
      "outputs": [],
      "stateMutability": "nonpayable",
      "type": "function"
    },
    {
      "inputs": [
        {
          "internalType": "address",
          "name": "newOwner",
          "type": "address"
        }
      ],
      "name": "transferOwnership",
      "outputs": [],
      "stateMutability": "nonpayable",
      "type": "function"
    }
  ],
  "transactionHash": "0x4fb7ce525ef964b1164711e5598f6bf1f529e1108ae2e6f459d344b8ccc465b7",
  "args": [
    "0x8397259c983751DAf40400790063935a11afa28a",
    "0xB29F86289698344CBE9Cb7c5BEC70427B4D20E2c"
  ],
  "bytecode": "0x60806040523480156200001157600080fd5b5060405162000d2538038062000d2583398101604081905262000034916200017c565b620000486200004262000076565b6200007a565b600180546001600160a01b0319166001600160a01b0384161790556200006e81620000ca565b50506200022e565b3390565b600080546001600160a01b038381166001600160a01b0319831681178455604051919092169283917f8be0079c531659141344cd1fd0a4f28419497f9722a3daafe3b4186f6b6457e09190a35050565b620000d462000076565b6001600160a01b0316620000e762000150565b6001600160a01b031614620001195760405162461bcd60e51b81526004016200011090620001f9565b60405180910390fd5b6001600160a01b038116620001425760405162461bcd60e51b81526004016200011090620001b3565b6200014d816200007a565b50565b6000546001600160a01b031690565b80516001600160a01b03811681146200017757600080fd5b919050565b600080604083850312156200018f578182fd5b6200019a836200015f565b9150620001aa602084016200015f565b90509250929050565b60208082526026908201527f4f776e61626c653a206e6577206f776e657220697320746865207a65726f206160408201526564647265737360d01b606082015260800190565b6020808252818101527f4f776e61626c653a2063616c6c6572206973206e6f7420746865206f776e6572604082015260600190565b610ae7806200023e6000396000f3fe608060405234801561001057600080fd5b50600436106100885760003560e01c80639a113ee21161005b5780639a113ee2146100d05780639a7c4b71146100e3578063e441b649146100f6578063f2fde38b1461010957610088565b8063237b5e961461008d578063715018a6146100ab5780638713e270146100b55780638da5cb5b146100c8575b600080fd5b61009561011c565b6040516100a291906107f5565b60405180910390f35b6100b361012b565b005b6100956100c33660046105ec565b61017f565b61009561019a565b6100b36100de36600461063f565b6101a9565b6100b36100f136600461072b565b610222565b6100b361010436600461060d565b610293565b6100b36101173660046105ec565b61038b565b6001546001600160a01b031681565b6101336103fc565b6001600160a01b031661014461019a565b6001600160a01b0316146101735760405162461bcd60e51b815260040161016a90610943565b60405180910390fd5b61017d6000610400565b565b6002602052600090815260409020546001600160a01b031681565b6000546001600160a01b031690565b6101b16103fc565b6001600160a01b03166101c261019a565b6001600160a01b0316146101e85760405162461bcd60e51b815260040161016a90610943565b7f8c5261668696ce22758910d05bab8f186d6eb247ceac2af2e82c7dc17669b036816040516102179190610823565b60405180910390a150565b6001546001600160a01b0316331461024c5760405162461bcd60e51b815260040161016a90610880565b61028d848484848080601f01602080910402602001604051908101604052809392919081815260200183838082843760009201919091525061045092505050565b50505050565b61029b6103fc565b6001600160a01b03166102ac61019a565b6001600160a01b0316146102d25760405162461bcd60e51b815260040161016a90610943565b6001600160a01b0382166102f85760405162461bcd60e51b815260040161016a906109e6565b6001600160a01b03811661031e5760405162461bcd60e51b815260040161016a906109af565b6001600160a01b038281166000908152600260205260409081902080546001600160a01b03191692841692909217909155517f088e4b54d8ef17ca7b35186a853dc4c71acf28092f8c97421e4dab492a5d91679061037f9084908490610809565b60405180910390a15050565b6103936103fc565b6001600160a01b03166103a461019a565b6001600160a01b0316146103ca5760405162461bcd60e51b815260040161016a90610943565b6001600160a01b0381166103f05760405162461bcd60e51b815260040161016a906108b7565b6103f981610400565b50565b3390565b600080546001600160a01b038381166001600160a01b0319831681178455604051919092169283917f8be0079c531659141344cd1fd0a4f28419497f9722a3daafe3b4186f6b6457e09190a35050565b6001600160a01b038083166000908152600260205260409020548391166104895760405162461bcd60e51b815260040161016a906108fd565b6001600160a01b0380841660009081526002602052604090205416806104c15760405162461bcd60e51b815260040161016a90610978565b600080826001600160a01b0316856040516104dc91906107d9565b6000604051808303816000865af19150503d8060008114610519576040519150601f19603f3d011682016040523d82523d6000602084013e61051e565b606091505b50915091508161058457856001600160a01b0316877f8f9eee715a605e7d06436b54b106cfc14af12daf6a7b2988196684f752d16bb6878480602001905181019061056991906106b8565b604051610577929190610836565b60405180910390a36105c7565b856001600160a01b0316877f8f9eee715a605e7d06436b54b106cfc14af12daf6a7b2988196684f752d16bb6876040516105be919061085b565b60405180910390a35b50505050505050565b80356001600160a01b03811681146105e757600080fd5b919050565b6000602082840312156105fd578081fd5b610606826105d0565b9392505050565b6000806040838503121561061f578081fd5b610628836105d0565b9150610636602084016105d0565b90509250929050565b600060208284031215610650578081fd5b813567ffffffffffffffff811115610666578182fd5b8201601f81018413610676578182fd5b803561068961068482610a47565b610a1d565b81815285602083850101111561069d578384fd5b81602084016020830137908101602001929092525092915050565b6000602082840312156106c9578081fd5b815167ffffffffffffffff8111156106df578182fd5b8201601f810184136106ef578182fd5b80516106fd61068482610a47565b818152856020838501011115610711578384fd5b610722826020830160208601610a6f565b95945050505050565b60008060008060608587031215610740578182fd5b84359350610750602086016105d0565b9250604085013567ffffffffffffffff8082111561076c578384fd5b818701915087601f83011261077f578384fd5b81358181111561078d578485fd5b88602082850101111561079e578485fd5b95989497505060200194505050565b600081518084526107c5816020860160208601610a6f565b601f01601f19169290920160200192915050565b600082516107eb818460208701610a6f565b9190910192915050565b6001600160a01b0391909116815260200190565b6001600160a01b0392831681529116602082015260400190565b60006020825261060660208301846107ad565b60006040825261084960408301856107ad565b828103602084015261072281856107ad565b60006040825261086e60408301846107ad565b82810360209384015290815201919050565b6020808252601c908201527f4368696c644368616e6e656c3a20494e56414c49445f53454e44455200000000604082015260600190565b60208082526026908201527f4f776e61626c653a206e6577206f776e657220697320746865207a65726f206160408201526564647265737360d01b606082015260800190565b60208082526026908201527f4368696c644368616e6e656c3a20494e56414c49445f53454e4445525f46524f6040820152651357d493d3d560d21b606082015260800190565b6020808252818101527f4f776e61626c653a2063616c6c6572206973206e6f7420746865206f776e6572604082015260600190565b6020808252601e908201527f4368696c644368616e6e656c3a20496e76616c69642072656365697665720000604082015260600190565b6020808252601f908201527f4368696c644368616e6e656c3a20496e76616c69642072656365697665722e00604082015260600190565b6020808252601e908201527f4368696c644368616e6e656c3a20496e76616c6964206368616e6e656c2e0000604082015260600190565b60405181810167ffffffffffffffff81118282101715610a3f57610a3f610a9b565b604052919050565b600067ffffffffffffffff821115610a6157610a61610a9b565b50601f01601f191660200190565b60005b83811015610a8a578181015183820152602001610a72565b8381111561028d5750506000910152565b634e487b7160e01b600052604160045260246000fdfea2646970667358221220b08f62fe190237ed74e83325204646d6d21402c84aaaa299fc70d516864da2ea64736f6c63430008000033"
}